:020000040800F2
:1000000000000220953B000819390008213900083A
:10001000293900083139000839390008000000008A
:10002000000000000000000000000000413900084E
:100030004F390008000000005D3900086D390008E4
:10004000E53B0008E53B0008E53B0008E53B000810
:10005000E53B0008C9390008D7390008E539000830
:10006000E53B0008E53B0008E53B0008E53B0008F0
:10007000E53B0008E53B0008E53B0008E53B0008E0
:10008000E53B0008E53B0008E53B0008E53B0008D0
:10009000E53B0008E53B0008E53B0008E53B0008C0
:1000A000E53B0008E53B0008E53B0008E53B0008B0
:1000B000F5390008E53B0008E53B0008E53B000892
:1000C000E53B0008E53B0008E53B0008E53B000890
:1000D000E53B0008E53B0008093A0008E53B00085D
:1000E000E53B0008E53B0008E53B0008E53B000870
:1000F000E53B0008E53B0008E53B0008E53B000860
:10010000E53B0008E53B0008E53B0008E53B00084F
:10011000E53B0008E53B0008E53B0008E53B00083F
:10012000E53B0008E53B0008E53B0008E53B00082F
:10013000E53B0008E53B0008E53B0008E53B00081F
:10014000E53B0008E53B0008E53B0008E53B00080F
:10015000E53B0008E53B0008E53B0008E53B0008FF
:10016000E53B0008E53B0008E53B0008E53B0008EF
:10017000E53B0008E53B0008E53B00080000000007
:08018000E53B0008E53B000827
:1001900010B5054C237833B9044B13B10448AFF3C1
:1001A00000800123237010BDE40100200000000046
:1001B00064D6000808B5034B1BB103490348AFF3ED
:1001C000008008BD00000000E801002064D600089F
:1001D00001F0FF01102A2BDB10F0070F08D010F8F8
:1001E000013B013A8B422DD010F0070F42B3F6D1FC
:1001F000F0B441EA012141EA014122F007047FF015
:1002000000070023F0E80256083C85EA010586EA6B
:10021000010685FA47F5A3FA87F586FA47F6A5FAA7
:1002200087F68EB9EED1F0BC01F0FF0102F00702B3
:1002300032B110F8013B013A83EA010313B1F8D15E
:100240000020704701387047002D06BF354603383F
:10025000073815F0010F07D1013015F4807F02BF78
:10026000013015F4C03F0130F0BC0138704700BFC9
:10027000034613F8012B002AFBD1181A01387047E6
:1002800081F0004102E000BF83F0004330B54FEA47
:1002900041044FEA430594EA050F08BF90EA020FB4
:1002A0001FBF54EA000C55EA020C7FEA645C7FEA47
:1002B000655C00F0E2804FEA5454D4EB5555B8BF6A
:1002C0006D420CDD2C4480EA020281EA030382EADB
:1002D000000083EA010180EA020281EA0303362D6D
:1002E00088BF30BD11F0004F4FEA01314FF4801C40
:1002F0004CEA113102D0404261EB410113F0004F52
:100300004FEA03334CEA133302D0524263EB430308
:1003100094EA050F00F0A780A4F10104D5F1200EA6
:100320000DDB02FA0EFC22FA05F2801841F1000101
:1003300003FA0EF2801843FA05F359410EE0A5F1D5
:1003400020050EF1200E012A03FA0EFC28BF4CF006
:10035000020C43FA05F3C01851EBE37101F00045BC
:1003600007D54FF0000EDCF1000C7EEB00006EEBC9
:100370000101B1F5801F1BD3B1F5001F0CD3490853
:100380005FEA30004FEA3C0C04F101044FEA4452AA
:1003900012F5800F80F09A80BCF1004F08BF5FEA31
:1003A000500C50F1000041EB045141EA050130BD11
:1003B0005FEA4C0C404141EB0101013C28BFB1F523
:1003C000801FE9D291F0000F04BF01460020B1FA6E
:1003D00081F308BF2033A3F10B03B3F120020CDA41
:1003E0000C3208DD02F1140CC2F10C0201FA0CF01F
:1003F00021FA02F10CE002F11402D8BFC2F1200C84
:1004000001FA02F120FA0CFCDCBF41EA0C01904039
:10041000E41AA2BF01EB0451294330BD6FEA040482
:100420001F3C1CDA0C340EDC04F11404C4F120026D
:1004300020FA04F001FA02F340EA030021FA04F37F
:1004400045EA030130BDC4F10C04C4F1200220FAD6
:1004500002F001FA04F340EA0300294630BD21FA14
:1004600004F0294630BD94F0000F83F4801306BFDA
:1004700081F480110134013D4EE77FEA645C18BFCE
:100480007FEA655C29D094EA050F08BF90EA020F65
:1004900005D054EA000C04BF1946104630BD91EA5D
:1004A000030F1EBF0021002030BD5FEA545C05D160
:1004B0004000494128BF41F0004130BD14F580049F
:1004C0003CBF01F5801130BD01F0004545F0FE4113
:1004D00041F470014FF0000030BD7FEA645C1ABF48
:1004E000194610467FEA655C1CBF0B46024650EA7F
:1004F000013406BF52EA033591EA030F41F40021AB
:1005000030BD00BF90F0000F04BF0021704730B530
:100510004FF4806404F132044FF000054FF0000105
:1005200050E700BF90F0000F04BF0021704730B5C6
:100530004FF4806404F1320410F0004548BF40429B
:100540004FF000013EE700BF42004FEAE2014FEAF0
:1005500031014FEA02701FBF12F07F4393F07F4FCB
:1005600081F06051704732F07F4208BF704793F0CE
:100570007F4F04BF41F40021704730B54FF46074E1
:1005800001F0004521F000411CE700BF50EA0102E4
:1005900008BF704730B54FF000050AE050EA01028D
:1005A00008BF704730B511F0004502D5404261EBFD
:1005B00041014FF4806404F132045FEA915C3FF43E
:1005C000D8AE4FF003025FEADC0C18BF03325FEADB
:1005D000DC0C18BF033202EBDC02C2F1200300FA8C
:1005E00003FC20FA02F001FA03FE40EA0E0021FAB1
:1005F00002F11444BDE600BF70B54FF0FF0C4CF49F
:10060000E06C1CEA11541DBF1CEA135594EA0C0F50
:1006100095EA0C0F00F0DEF82C4481EA030621EA8B
:100620004C5123EA4C5350EA013518BF52EA0335C6
:1006300041F4801143F4801338D0A0FB02CE4FF078
:100640000005E1FB02E506F00042E0FB03E54FF0A8
:100650000006E1FB03569CF0000F18BF4EF0010EA0
:10066000A4F1FF04B6F5007F64F5407404D25FEA9C
:100670004E0E6D4146EB060642EAC62141EA55514F
:100680004FEAC52040EA5E504FEACE2EB4F1FD0C91
:1006900088BFBCF5E06F1ED8BEF1004F08BF5FEA0F
:1006A000500E50F1000041EB045170BD06F00046C1
:1006B00046EA010140EA020081EA0301B4EB5C046E
:1006C000C2BFD4EB0C0541EA045170BD41F4801166
:1006D0004FF0000E013C00F3AB8014F1360FDEBF8B
:1006E000002001F0004170BDC4F10004203C35DA67
:1006F0000C341BDC04F11404C4F1200500FA05F3EA
:1007000020FA04F001FA05F240EA020001F000428A
:1007100021F0004110EBD37021FA04F642EB060100
:100720005EEA430E08BF20EAD37070BDC4F10C042A
:10073000C4F1200500FA04F320FA05F001FA04F2EE
:1007400040EA020001F0004110EBD37041F10001DA
:100750005EEA430E08BF20EAD37070BDC4F12005E5
:1007600000FA05F24EEA020E20FA04F301FA05F24D
:1007700043EA020321FA04F001F0004121FA04F2F5
:1007800020EA020000EBD3705EEA430E08BF20EAC5
:10079000D37070BD94F0000F0FD101F000464000FF
:1007A00041EB010111F4801F08BF013CF7D041EA81
:1007B000060195F0000F18BF704703F00046520085
:1007C00043EB030313F4801F08BF013DF7D043EA56
:1007D0000603704794EA0C0F0CEA135518BF95EA0C
:1007E0000C0F0CD050EA410618BF52EA4306D1D193
:1007F00081EA030101F000414FF0000070BD50EAB2
:10080000410606BF1046194652EA430619D094EA3B
:100810000C0F02D150EA013613D195EA0C0F05D125
:1008200052EA03361CBF104619460AD181EA030179
:1008300001F0004141F0FE4141F470014FF0000031
:1008400070BD41F0FE4141F4780170BD70B54FF0CC
:10085000FF0C4CF4E06C1CEA11541DBF1CEA13554C
:1008600094EA0C0F95EA0C0F00F0A7F8A4EB05042E
:1008700081EA030E52EA03354FEA013100F0888025
:100880004FEA03334FF0805545EA131343EA1263EE
:100890004FEA022245EA111545EA10654FEA0026A3
:1008A0000EF000419D4208BF964244F1FD0404F55C
:1008B000407402D25B084FEA3202B61A65EB0305B8
:1008C0005B084FEA32024FF480104FF4002CB6EB75
:1008D000020E75EB030E22BFB61A754640EA0C00F5
:1008E0005B084FEA3202B6EB020E75EB030E22BF35
:1008F000B61A754640EA5C005B084FEA3202B6EB76
:10090000020E75EB030E22BFB61A754640EA9C0034
:100910005B084FEA3202B6EB020E75EB030E22BF04
:10092000B61A754640EADC0055EA060E18D04FEAC2
:10093000051545EA16754FEA06164FEAC30343EA62
:1009400052734FEAC2025FEA1C1CC0D111F4801F2F
:100950000BD141EA00014FF000004FF0004CB6E728
:1009600011F4801F04BF01430020B4F1FD0C88BFC7
:10097000BCF5E06F3FF6AFAEB5EB030C04BFB6EBD2
:10098000020C5FEA500C50F1000041EB045170BDC5
:100990000EF0004E4EEA113114EB5C04C2BFD4EBF2
:1009A0000C0541EA045170BD41F480114FF0000E76
:1009B000013C90E645EA060E8DE60CEA135594EAF2
:1009C0000C0F08BF95EA0C0F3FF43BAF94EA0C0FF5
:1009D0000AD150EA01347FF434AF95EA0C0F7FF46A
:1009E00025AF104619462CE795EA0C0F06D152EABE
:1009F00003353FF4FDAE1046194622E750EA4106A2
:100A000018BF52EA43067FF4C5AE50EA41047FF4B2
:100A10000DAF52EA43057FF4EBAE12E74FF0FF3C17
:100A200006E000BF4FF0010C02E000BF4FF0010CE8
:100A30004DF804CD4FEA410C7FEA6C5C4FEA430C61
:100A400018BF7FEA6C5C1BD001B050EA410C0CBFB0
:100A500052EA430C91EA030F02BF90EA020F002012
:100A6000704710F1000F91EA030F58BF994208BF79
:100A700090422CBFD8176FEAE37040F00100704736
:100A80004FEA410C7FEA6C5C02D150EA013C07D18D
:100A90004FEA430C7FEA6C5CD6D152EA033CD3D0D8
:100AA0005DF8040B704700BF8446104662468C46D2
:100AB0001946634600E000BF01B5FFF7B7FF002805
:100AC00048BF10F1000F01BD4DF808EDFFF7F4FF2E
:100AD0000CBF012000205DF808FB00BF4DF808EDB9
:100AE000FFF7EAFF34BF012000205DF808FB00BFDC
:100AF0004DF808EDFFF7E0FF94BF012000205DF8FE
:100B000008FB00BF4DF808EDFFF7CEFF94BF0120B2
:100B100000205DF808FB00BF4DF808EDFFF7C4FFAB
:100B200034BF012000205DF808FB00BF4FEA410CF4
:100B30007FEA6C5C02D150EA013C0AD14FEA430CD7
:100B40007FEA6C5C02D152EA033C02D14FF0000014
:100B500070474FF0010070474FEA410212F5001252
:100B600015D211D56FF47873B3EB625212D94FEAF4
:100B7000C12343F0004343EA505311F0004F23FADE
:100B800002F018BF404270474FF00000704750EA33
:100B9000013005D111F0004008BF6FF000407047F0
:100BA0004FF00000704700BF4A0011D212F500124A
:100BB00011D20DD56FF47873B3EB62520ED44FEAB5
:100BC000C12343F0004343EA505323FA02F0704735
:100BD0004FF00000704750EA013002D14FF0FF3073
:100BE00070474FF0000070474FEA4102B2F1E04316
:100BF00024BFB3F5001CDCF1FE5C0DD901F0004C04
:100C00004FEAC0024CEA5070B2F1004F40EB830053
:100C100008BF20F00100704711F0804F21D113F17F
:100C20003872BCBF01F00040704741F480114FEAB8
:100C30005252C2F11802C2F1200C10FA0CF320FA41
:100C400002F018BF40F001004FEAC1234FEAD3235E
:100C500003FA0CFC40EA0C0023FA02F34FEA4303C8
:100C6000CCE77FEA625307D150EA01331EBF4FF051
:100C7000FE4040F44000704701F0004040F0FE406C
:100C800040F40000704700BF53B94AB9002908BFBB
:100C900000281CBF4FF0FF314FF0FF3000F0BEB90D
:100CA000ADF1080C6DE904CE00F03CF8DDF804E08D
:100CB000DDE9022304B0704738B500220023044662
:100CC0000D46FFF70BFF28B920462946BDE83840FE
:100CD00000F00AB8204605F1004100F005F8404256
:100CE00061EB410138BD00BFD0B50C4B0022064678
:100CF0000F46FFF781FCFFF757FF0446FFF702FCA2
:100D0000074B0022FFF778FC02460B463046394677
:100D1000FFF7BAFAFFF748FF2146D0BD0000F03DCB
:100D20000000F0412DE9F047089D8E4604468846B4
:100D3000002B4AD18A42174662D9B2FA82F64EB1E6
:100D4000C6F1200301FA06F820FA03F3B74043EA9C
:100D50000808B4404FEA174E1FFA87FCB8FBFEF1B3
:100D6000230C0EFB118843EA084301FB0CF29A4264
:100D700009D9FB1801F1FF3080F0EA809A4240F275
:100D8000E78002393B449A1AA3B2B2FBFEF00EFB95
:100D9000102243EA024300FB0CFC9C4509D9FB18D6
:100DA00000F1FF3280F0D6809C4540F2D3803B4476
:100DB000023840EA0140A3EB0C0300211DB1F340CF
:100DC0000022C5E90032BDE8F0878B4205D90DB19C
:100DD000C5E9000100210846F5E7B3FA83F10029CF
:100DE00046D1734502D3824200F20581841A6EEB2C
:100DF000030201209046002DE5D0C5E90048E2E756
:100E0000002A00F09080B2FA82F6002E40F0A48012
:100E10008A1A030C4FEA174E80B2BCB20121B2FB12
:100E2000FEFC0EFB1C2243EA024304FB0CF29A4236
:100E300007D9FB180CF1FF3802D29A4200F2E08089
:100E4000C4469B1AB3FBFEF20EFB123340EA034387
:100E500002FB04F49C4207D9FB1802F1FF3002D2D6
:100E60009C4200F2CA8002461B1B42EA0C40A5E7E6
:100E7000C1F120068B4022FA06F71F430EFA01F457
:100E800020FA06F32EFA06FE4FEA1749234300FA2A
:100E900001F81FFA87FCBEFBF9F01C0C09FB10EEF1
:100EA00044EA0E4400FB0CFEA64502FA01F209D901
:100EB0003C1900F1FF3A80F09C80A64540F29980F1
:100EC00002383C44A4EB0E041FFA83FEB4FBF9F392
:100ED00009FB13444EEA044403FB0CFCA44508D967
:100EE0003C1903F1FF3E80F08280A4457FD9023B8C
:100EF0003C4443EA0040A4EB0C04A0FB02EC644534
:100F00007346E14662D35FD05DB1B8EB030264EB98
:100F1000090404FA06F622FA01F31E43CC40C5E99F
:100F2000006400214FE7B1FBF2FC010C41EA0E41E5
:100F300080B240EA01423B4638463C46B846BE468F
:100F40002026B1FBF7F1A2EB080241EA0C4166E76B
:100F5000014618E710462CE7C6F120022EFA02F3EC
:100F6000B740B14020FA02F24FEA174E0A43B3FBF2
:100F7000FEF8BCB20EFB1833110C41EA034108FB2A
:100F800004F9B04089454FEA104380B23ED9791840
:100F900008F1FF3C01D289451FD8A1EB0901B1FB43
:100FA000FEF909FB04F80EFB191192B242EA014264
:100FB000424529D2BA1809F1FF31C4D24245C2D202
:100FC000A9F102013A44BEE7F0459DD2BEEB02030F
:100FD0006CEB070C0138E14696E7A7EB0909494499
:100FE000A8F1020CB1FBFEF909FB04F8DBE773463C
:100FF0007FE7504666E70846FDE63B44023A33E7A2
:10100000ACF1020C3B441CE749469CE7A1EB09010B
:10101000C446B1FBFEF909FB04F8C4E7704700BF02
:1010200080B483B000AF78604FF06043D3F8803E67
:1010300003F00103002B13D04FF06043D3F8003EC0
:1010400003F00103002B0BD000E000BF4FF0604322
:101050001B68002BF9D04FF060437A68D2B21A7047
:101060007B6818460C37BD465DF8047B704700006E
:1010700080B483B000AF0346FB80FB88B3F5FA7FF2
:1010800002D24FF4FA73FB80FB8840F6C4129342FD
:1010900002D940F6C413FB80044B1B68FA889A639C
:1010A00000BF0C37BD465DF8047B704794040020F8
:1010B00080B485B000AF0346FB80B7F9063013F16A
:1010C0002D0F02DA4FF6D373FB80B7F906302D2BC4
:1010D00001DD2D23FB80B7F9062013465B00134486
:1010E000DA00D31A03F27E43FB60FB689AB2054B29
:1010F0001B689A63FB689BB218461437BD465DF8BF
:10110000047B704794040020B0B5A2B004AF7860AF
:1011100006224849786808F096FA0346002B50D119
:101120007B68981D07F1700307F17402424908F0CB
:1011300011FA0346022B2AD17B6F1846FFF704FAF7
:1011400004460D463B6F184645EC104B00F0F4FB8F
:101150007B6F1846FFF7F8F902460B46396F07F127
:101160000C000291CDE90023344A402108F09AF99D
:1011700007F10C031846FFF77BF803469AB207F114
:101180000C014FF0FF332E4806F008FA4DE02D4BCE
:1011900007F158041D460FCD0FC495E803002060E9
:1011A0000434218007F158031846FFF761F803461D
:1011B0009AB207F158014FF0FF33214806F0EEF9DB
:1011C00033E004222049786808F03DFA0346002BFA
:1011D00016D100F0C3F81D4A07F14C0307CA03C338
:1011E0001A8007F14C031846FFF742F803469AB2FB
:1011F00007F14C014FF0FF33114806F0CFF914E02E
:1012000007F10C007B68124A402108F04BF907F106
:101210000C031846FFF72CF803469AB207F10C01AD
:101220004FF0FF33064806F0B9F900BF7837BD46E6
:10123000B0BD00BF80D6000888D6000890D6000850
:10124000DC040020CCD60008ACD60008E4D60008A8
:10125000B4D6000880B483B000AF78607B681B68A8
:101260005B6A0F4A13600E4B1B681AB20D4B1A8053
:101270000C4BB3F90030DA0F13445B101AB20A4B6F
:101280001A80084BB3F90030DA0F13445B101AB21E
:10129000064B1A8000BF0C37BD465DF8047B7047D3
:1012A000080600200C060020180600201A06002060
:1012B00080B582B000AF0346FB80FB88012B22D1B2
:1012C0004FF48051124803F0F8FA124B1B68002BC0
:1012D00016D1104B01221A604FF0804300225A624F
:1012E0000D4B00221A800D4B00221A800C4B00225D
:1012F0001A800C4B00221A800B4B00221A6002E06D
:10130000044B00221A6000BF0837BD4680BD00BFF5
:1013100000000240100600200E06002018060020E3
:10132000380A00201A0600201406002080B500AFFD
:101330000821084805F04CF80C21064805F048F84B
:101340000821054805F044F80C21034805F040F851
:1013500000BF80BD740300209C02002080B400AF59
:101360000A4B1B680022DA63084B1B6800221A64D0
:10137000074B1B680022DA63054B1B6800221A64C6
:1013800000BFBD465DF8047B704700BF74030020BA
:101390009C02002080B483B000AF78600A4B1B68C9
:1013A0007A68DA63084B1B6800221A64074B1B68D3
:1013B0000022DA63054B1B687A681A6400BF0C3799
:1013C000BD465DF8047B7047740300209C0200203A
:1013D00080B586B000AFF860B9607A607B689AB279
:1013E0004FF0FF33B9680C4806F0D8F800237B6152
:1013F00009E07B69BA6813441B781846FFF710FEB2
:101400007B6901337B617A697B689A42F1DB7B6897
:1014100018461837BD4680BD2405002080B483B02F
:1014200000AF78607B68DB6A002B02D07B68DB6AE8
:1014300001E04FF6FF7318460C37BD465DF8047B9C
:101440007047000080B582B000AF4FF08040FFF7DA
:10145000E5FF034601333B604FF080435B6A084A77
:1014600012889B1A7B607B68002B03DA3B687A68E2
:1014700013447B607B6818460837BD4680BD00BFBB
:101480002006002080B582B000AF0C48FFF7C6FFF1
:10149000034601333B600A4B1B881A46074B5B6AC5
:1014A000D31A7B607B68002B03DA3B687A681344AD
:1014B0007B607B6818460837BD4680BD000C004045
:1014C0002206002080B500AF0B4B1B6800225A6239
:1014D0000A4B1B6800225A62022002F0F7FB4FF011
:1014E00080435B6A9AB2064B1A80064B5B6A9AB2DB
:1014F000054B1A8000BF80BDE4020020BC03002021
:1015000020060020000C00402206002080B582B09A
:1015100000AFFFF797FF07EE900AF8EEE76A114B6E
:1015200093ED007AC6EE877AC7ED017AFFF7AAFF3E
:1015300007EE900AF8EEE76A0B4B93ED007AC6EEE1
:10154000877AC7ED007A97ED017AD7ED007A77EECA
:10155000277AB6EE007A67EE877AB0EE670A083728
:10156000BD4680BD080000200C00002080B586B07C
:1015700002AF0346FB717F233B73FB791B01DBB298
:101580007B73074B198807F10C024FF0FF33009370
:101590000223044803F008FB00BF1037BD4680BD9E
:1015A000000000204802002080B586B002AF03464C
:1015B000FB710B46BB7113467B71FB791846FFF735
:1015C000D5FFBB793B737B797B73074B198807F198
:1015D0000C024FF0FF3300930223044803F0E4FAB7
:1015E00000BF1037BD4680BD00000020480200202B
:1015F00080B584B002AF3A601A460346FB710B46D1
:10160000BB7113467B71FB791846FFF7AFFF0C4B9C
:101610001988BA1D4FF0FF3300930123094803F0E6
:10162000C3FA074B19887B799BB24FF0FF320092C7
:101630003A68044803F0B6FB00BF0837BD4680BDDA
:10164000000000204802002080B586B002AF3A605A
:101650001A460346FB800B467B7113463B717A1D8D
:10166000F9886423009301230B4803F09DFA034695
:10167000FB73FB7B002B01D0FB7B09E03B799BB22A
:10168000F988642200923A68034803F08BFB034612
:1016900018461037BD4680BD4802002080B582B094
:1016A00000AF0023FB71FA1D01230021D020FFF7BA
:1016B000CBFF0346002B07D1FB79EA2B04D10E4B5D
:1016C000D0221A80002312E0FA1D01230021D2202B
:1016D000FFF7BAFF0346002B07D1FB79EA2B04D1B1
:1016E000054BD2221A80002301E04FF0FF33184649
:1016F0000837BD4680BD00BF0000002080B582B025
:1017000000AFFA1D012300210020FFF771FFFB79D4
:10171000EA2B02D04FF0FF3321E080220621002087
:10172000FFF742FF642002F0D1FA012206210020D7
:10173000FFF73AFF002207210020FFF735FF0022C4
:1017400005210020FFF730FF002214210220FFF7BF
:101750002BFF002201210220FFF726FF002318465D
:101760000837BD4680BD80B588B000AFF860B9606D
:101770007A603B6007F114020C232D210020FFF753
:1017800037FF3B7D1BB21B021AB27B7D1BB213439A
:101790001AB2FB681A80BB7D1BB21B021AB2FB7D1A
:1017A0001BB213431AB2BB681A803B7E1BB21B02EA
:1017B0001AB27B7E1BB213431AB27B681A80BB7EBF
:1017C0001BB21B021AB2FB7E1BB213431AB23B6858
:1017D0001A803B7F1BB21B021AB27B7F1BB21343E2
:1017E0001AB2BB6A1A80BB7F1BB21B021AB2FB7F04
:1017F0001BB213431AB2FB6A1A8000BF2037BD46E2
:1018000080BD000090B589B002AF4FF000037B614E
:1018100000233B6124E007F1080407F10A0207F105
:101820000C0107F10E003B1D0193BB1D00932346E5
:10183000FFF799FFB7F9043007EE903AB8EEE77A70
:10184000DFED0F6AC7EE267A97ED057A77EE277AF5
:10185000C7ED057A0A2002F039FA3B6901333B6192
:101860003B69632BD7DDD7ED057A9FED067AC7EE8E
:10187000876AF0EE667AB0EE670A1C37BD4690BD07
:10188000000003430000C84280B586B000AF0122CB
:101890004FF48041224802F0F7FF00237B6002E012
:1018A0007B6801337B607B68B3F5967FF8DB0022B1
:1018B0004FF480411A4802F0E7FF00BF4FF4007177
:1018C000184802F0C9FF0346002BF7D0164B5B689F
:1018D0007B6100BF4FF40071124802F0BDFF034668
:1018E000012BF7D0104B5B683B613A697B69D31AD7
:1018F000FB600E4B1B680E4AA2FB03239B0CFA688D
:10190000B2FBF3F3BB60BB6840F2571202FB03F378
:10191000084AA2FB03239B0B18461837BD4680BD1F
:101920000004024000080240001000E01000002007
:1019300083DE1B435917B7D1B0B58AB002AF87ED2C
:10194000010A3860FFF7BEFDD7ED017A9FED587AA6
:1019500067EE877AF0EE000AB0EE670A0BF048FEF9
:1019600087ED060A02F0A6F9786100233B61FFF7D4
:101970008BFF0346142B07D8FFF7F0FC4D4A2821B4
:10198000002001F0B3FB8CE0FFF7C0FD87ED030AF8
:1019900097ED017AD7ED037A77EE677AC7ED027A91
:1019A00097ED027AD7ED067AB4EEE77AF1EE10FA07
:1019B00076D93B68FB61D7ED027AB3EE0E7AF4EE8E
:1019C000C77AF1EE10FA02DD3B68FB613DE0D7ED2E
:1019D000027AB2EE047AF4EEC77AF1EE10FA0EDD76
:1019E0003B6807EE903AF8EEE77A9FED337A67EEC0
:1019F000877AFDEEE77A17EE903AFB6125E0D7EDA6
:101A0000027AB0EE087AF4EEC77AF1EE10FA0EDD43
:101A10003B6807EE903AF8EEE77A9FED287A67EE9A
:101A2000877AFDEEE77A17EE903AFB610DE03B68AE
:101A300007EE903AF8EEE77AB5EE007A67EE877A2D
:101A4000FDEEE77A17EE903AFB611D4BB3F90030DB
:101A50001A46FB69934203DA194BB3F90030FB6174
:101A6000F869FFF797FCF868FEF76EFD04460D462F
:101A70007868FEF769FD02460B46CDE90023224651
:101A80002B461049104807F043FD0F4A142100204F
:101A900001F02CFB01F000FA0A2002F017F966E7CA
:101AA00000BFFFF75BFC00BF2037BD46B0BD00BFE5
:101AB0008FC2753D08D700089A99193F3333B33E5A
:101AC000040000201CD70008C805002090B58BB08A
:101AD00002AF344BBB6102F0EDF87861324B1B680A
:101AE0007A69D31A07EE903AB8EE677ADFED2F6A7B
:101AF000C7EE267AC7ED077AD7ED077AF5EEC07AFA
:101B0000F1EE10FA01D82A4BFB61274A7B6913607A
:101B100007F1080407F10A0207F10C0107F10E00B2
:101B20003B1D0193BB1D00932346FFF71CFEB7F935
:101B3000043007EE903AF8EEE77ADFED1E6A87EEA2
:101B4000A67A1D4BD3ED007A77EE677AC7ED047A5B
:101B50001A4B93ED007AD7ED067A27EE277AF7EE47
:101B6000006AD7ED067A76EEE76AD7ED047A66EE7C
:101B7000A77A77EE277A114BC3ED007A0F4B93EDDE
:101B8000007AD7ED077A27EE277A0D4BD3ED007A4E
:101B900077EE277A0A4BC3ED007A00BF2437BD46A3
:101BA00090BD00BFCDCC4C3F2C06002000007A44F5
:101BB0006F12833A00000343240600203006002001
:101BC0002806002080B584B000AF03460A46FB809B
:101BD00013467B71B7F9063013F12D0F02DA4FF679
:101BE000D373FB80B7F906302D2B01DD2D23FB804D
:101BF0007B79002B27D01D4BB3F90030B7F90620B5
:101C00009A4201DD012301E04FF0FF33FB8112E036
:101C1000164BB3F900309AB2FB8913449BB21AB247
:101C2000124B1A80114BB3F900301846FFF740FAF7
:101C3000142002F04BF80D4BB3F90030B7F9062031
:101C40009A42E5D107E0094AFB881380B7F90630CC
:101C50001846FFF72DFA054BB3F900301846FFF789
:101C600027FA034618461037BD4680BD34060020CB
:101C7000B0B590B002AF87ED030AB86079607B68B9
:101C800013F12D0F02DA6FF02C037B607B682D2B94
:101C900001DD2D237B60864B4FF000021A6002F0BD
:101CA00009F80346834A13604FF000037B63002367
:101CB0003B6326E007F1180407F11A0207F11C0143
:101CC00007F11E0007F11403019307F116030093B7
:101CD0002346FFF748FDB7F9143007EE903AB8EE07
:101CE000E77ADFED756AC7EE267A97ED0D7A77EE23
:101CF000277AC7ED0D7A0A2001F0E8FF3B6B01332C
:101D00003B633B6B092BD5DD97ED0D7AF2EE046A50
:101D1000C7EE267AC7ED0D7A7B681BB20121184603
:101D2000FFF750FF642001F0D1FF01F0C3FFB8625C
:101D300043F698237B628AE001F0BCFF0246BB6A4F
:101D4000D31A7A6A9A42C0F09280FFF7BFFE01F080
:101D5000B1FF0246574B1B68D31A07EE903AB8EE14
:101D6000677AD7ED0D7A27EE277ADFED546AC7EE52
:101D7000267A4F4B93ED007A77EE677A4C4BC3EDA2
:101D8000007A4B4BD3ED007AF0EEE76AD7ED037A99
:101D9000B0EEE77AC6EE877AC7ED087ABB68FB62D9
:101DA000D7ED087A9FED467AF4EEC77AF1EE10FA95
:101DB0000DDDBB6807EE903AF8EEE77AB6EE007AF2
:101DC00067EE877AFDEEE77A17EE903AFB62D7ED81
:101DD000087A9FED3C7AF4EEC77AF1EE10FA0DDD49
:101DE000BB6807EE903AF8EEE77A9FED377A67EE38
:101DF000877AFDEEE77A17EE903AFB62F86AFFF712
:101E0000C9FA0A2001F062FFFFF73EFD03460F2BDF
:101E100002D8FFF7A3FA2BE0254B1B681846FEF704
:101E200093FB04460D46F868FEF78EFB02460B4610
:101E3000CDE9002322462B462449254807F068FBBC
:101E4000234A2821002001F051F901F025F8184B10
:101E5000D3ED007AB0EEE77AD7ED037AF0EEE77AC9
:101E6000B4EEE77AF1EE10FA3FF566AF00E000BF9E
:101E7000FFF774FA01210020FFF7A4FE40F2DC50C6
:101E8000FFF7F6F80A4B1B681846FEF75DFB0246A3
:101E90000B4610490E4807F03BFB0D4A322100204B
:101EA00001F024F900F0F8FF00BF3837BD46B0BD9F
:101EB000280600202C0600200000034300007A447E
:101EC0003333333F6666663F9A99993E68D7000878
:101ED000C805002084D700082DE9B0438EB004AFB8
:101EE00001F082FE854BDB68844A43F08073D36047
:101EF000834B00225A60824B1B68814A43F00103E6
:101F0000136000F011FA00F093FE00F05DFD00F0A8
:101F1000B9FB00F039FE00F0EFFA00F05FFE00F0D0
:101F2000BDFA00F0FDFC00F079FC00F0FFFB00F0D2
:101F30009BFD00F0E3FD00F05FFAFFF763FCF0EEBD
:101F4000407A704BC3ED007AFFF7F0F904216E4838
:101F500004F03EFA3C216D4804F0A8FB3C216C489B
:101F600004F0A4FB01F0F4F86A4A05210A2001F00C
:101F7000BDF8694A1E21282001F0B8F8674B7B6242
:101F80007A6A32210A2001F0B1F8654A07F1140398
:101F900007CA03C31A7007F114014FF0FF33092277
:101FA000604805F0FBFA07F114014FF0FF330922F6
:101FB0005D4805F0F3FA00F06FFF40F6B83001F02D
:101FC00085FE00F0A1FFFFF769FB0346002B09D156
:101FD000564B1B885B089BB21A465549554807F07B
:101FE00097FA03E05449534807F092FA514A002106
:101FF000002001F07BF800F04FFF4FF4FA7001F081
:1020000065FEFFF77BFB0346002B04D14B49494893
:1020100007F07EFA03E04A49464807F079FA454A54
:102020000A21002001F062F800F036FF4FF4FA7048
:1020300001F04CFE434A28210F2001F057F8424A94
:102040003221002001F052F800F026FF3F4B012220
:102050001A60FFF76BF901F02DFE03461A463C4B60
:102060001A60282140F6C4109FED3A0AFFF700FEDF
:1020700007F113010A2301222B4805F01AFB03463E
:10208000002B21D1FB7C0A2B02D0FB7C0D2B0FD126
:10209000314B1B68002B17DD2F4B1B682F4A00218B
:1020A000D1542E48FFF730F82B4B00221A600BE07A
:1020B000294B1B683E2B07DC274B1B685A1C264903
:1020C0000A60F97C254AD154FFF7DEFB38623A6A90
:1020D0002349184807F01CFA164A3221002001F063
:1020E00005F83B6A0F2B3FD8FFF738F901224FF470
:1020F00080711C4802F0C8FB3CE000BFF0ED00E03E
:10210000001000E02406002094040020E4020020D7
:10211000BC030020D0D70008E0D70008E8D70008AB
:1021200074D8000824050020DC04002000000020F2
:10213000F8D70008C805002004D8000814D8000803
:102140001CD8000828D8000834D800081006002041
:102150001C06002000003443AC0500206C05002064
:1021600044D700080000024000224FF4807161480B
:1021700002F08AFB07F10A0407F10C0207F10E01D5
:1021800007F11000BB1D019307F1080300932346DC
:10219000FFF7E9FAB7F9103007EE903AB8EEE77AB0
:1021A000DFED556AC7EE267A544BC3ED007AB7F9D6
:1021B0000E3007EE903AB8EEE77ADFED4F6AC7EEE1
:1021C000267A4F4BC3ED007AB7F90C3007EE903A00
:1021D000B8EEE77ADFED486AC7EE267A494BC3EDE1
:1021E000007AB7F90A3007EE903AB8EEE77ADFEDF9
:1021F000466AC7EE267A454BC3ED007AB7F9083038
:1022000007EE903AB8EEE77ADFED3F6AC7EE267A3E
:102210003F4BC3ED007AB7F9063007EE903AB8EEBF
:10222000E77ADFED396AC7EE267A3A4BC3ED007ADA
:1022300000F06AFE314B1B681846FEF785F98046B0
:1022400089462F4B1B681846FEF77EF904460D465B
:102250002C4B1B681846FEF777F902460B46CDE972
:102260000223CDE9004542464B462B492B4807F057
:102270004FF92A4A0021002000F038FF234B1B6849
:102280001846FEF761F980468946214B1B681846BF
:10229000FEF75AF904460D461E4B1B681846FEF71A
:1022A00053F902460B46CDE90223CDE900454246EB
:1022B0004B461B49194807F02BF9184A0A21002000
:1022C00000F014FF00F0E8FD1448FDF7D1FF0346CD
:1022D0009AB24FF0FF331149124805F05FF94FF4FD
:1022E0008051044802F0E9FA4FF4FA7001F0EEFC74
:1022F000BEE600BF0000024000008046B00500209E
:10230000B4050020B805002000000343BC050020F0
:10231000C0050020C405002044D80008C8050020DE
:102320005CD800082405002080B594B000AF07F108
:10233000200330220021184607F07DF907F10C0335
:1023400000221A605A609A60DA601A610023BB604A
:10235000274B1B6C264A43F080531364244B1B6CA1
:1023600003F08053BB60BB6800237B60214B1B687C
:10237000204A43F4804313601E4B1B6803F48043E0
:102380007B607B6801233B624FF480337B620223D6
:10239000BB634FF48003FB6308233B64A8237B6487
:1023A0000223BB640423FB6407F12003184603F0F7
:1023B000D9FA0346002B01D000F01AFD0F23FB6071
:1023C00002233B6100237B614FF48053BB610023F8
:1023D000FB6107F10C030221184603F03BFD0346A5
:1023E000002B01D000F004FD00BF5037BD4680BD7A
:1023F000003802400070004080B584B000AF3B461A
:1024000000221A605A609A60DA60214B214A1A60F1
:102410001F4B00225A601E4B00229A601C4B002268
:102420001A611B4B00221A76194B002283F82020D8
:10243000174B0022DA62164B174A9A62144B00229D
:10244000DA60134B0122DA61114B002283F830204D
:102450000F4B01225A610E4801F05CFC0346002B31
:1024600001D000F0C5FC04233B6001237B60002306
:10247000BB603B461946064801F090FC0346002B22
:1024800001D000F0B5FC00BF1037BD4680BD00BFD5
:1024900000020020002001400100000F80B500AFC5
:1024A000124B134A1A60114B124A5A600F4B00220A
:1024B0009A600E4B0022DA600C4B4FF480421A6196
:1024C0000A4B00225A61094B00229A61074B0022F5
:1024D000DA61064B00221A62044802F021FA034630
:1024E000002B01D000F084FC00BF80BD480200201A
:1024F00000580040A086010080B596B000AF07F1FB
:10250000480300221A605A609A60DA6007F14003BB
:1025100000221A605A6007F1240300221A605A60F0
:102520009A60DA601A615A619A613B1D202200218B
:10253000184607F080F8514B514A1A604F4B002261
:102540005A604E4B00229A604C4B41F61F42DA60B3
:102550004A4B00221A61494B00225A61474B002224
:102560009A61464803F096FE0346002B01D000F026
:102570003FFC4FF48053BB6407F1480319463F48C2
:1025800004F0D4FA0346002B01D000F031FC3B48A4
:1025900003F0CFFE0346002B01D000F029FC0023FE
:1025A0003B6400237B6407F140031946334804F081
:1025B000C3FE0346002B01D000F01AFC60237B62AF
:1025C0000023BB620023FB6200233B6300237B6389
:1025D0000023BB630023FB6307F124030022194699
:1025E000264804F0E1F90346002B01D000F000FC7E
:1025F00007F1240304221946204804F0D5F90346C4
:10260000002B01D000F0F4FB0223FB6207F124034E
:1026100008221946194804F0C7F90346002B01D0D7
:1026200000F0E6FB07F124030C221946134804F0DE
:10263000BBF90346002B01D000F0DAFB00237B60DE
:102640000023BB600023FB6000233B6100237B6110
:102650004FF40053BB6100233B623B1D1946074802
:1026600004F0E6FE0346002B01D000F0C1FB034856
:1026700001F01AF800BF5837BD4680BD9C0200200B
:102680000000014080B58CB000AF07F10C0324229C
:102690000021184606F0CFFF3B1D00221A605A6049
:1026A000214B4FF080421A601F4B00225A601E4B94
:1026B00000229A601C4B4FF6FF72DA601A4B002220
:1026C0001A61194B00229A610323FB6000233B61CE
:1026D00001237B610023BB610023FB6100233B627C
:1026E00001237B620023BB620023FB6207F10C0322
:1026F00019460D4803F034FF0346002B01D000F0CB
:1027000077FB00237B600023BB603B1D1946064816
:1027100004F012FE0346002B01D000F069FB00BF5D
:102720003037BD4680BD00BFE402002080B58EB0CA
:1027300000AF07F1280300221A605A609A60DA603D
:1027400007F1200300221A605A603B1D00221A6024
:102750005A609A60DA601A615A619A612D4B2E4A6A
:102760001A602C4B4FF434725A602A4B00229A6044
:10277000284B4FF4FA62DA60264B00221A61254B8F
:1027800000229A61234803F085FD0346002B01D007
:1027900000F02EFB4FF48053BB6207F1280319466B
:1027A0001C4804F0C3F90346002B01D000F020FBC5
:1027B000184803F0BEFD0346002B01D000F018FBC3
:1027C00000233B6200237B6207F120031946114876
:1027D00004F0B2FD0346002B01D000F009FB60239A
:1027E0007B600023BB600023FB6000237B613B1DFB
:1027F0000C221946074804F0D7F80346002B01D0F5
:1028000000F0F6FA034800F04FFF00BF3837BD462E
:1028100080BD00BF2C0300200004004080B58EB0B6
:1028200000AF07F1280300221A605A609A60DA604C
:1028300007F1200300221A605A603B1D00221A6033
:102840005A609A60DA601A615A619A61324B334A6F
:102850001A60314B00225A602F4B00229A602E4B97
:1028600041F61F42DA602C4B00221A612A4B0022EB
:102870009A61294803F00EFD0346002B01D000F0B9
:10288000B7FA4FF48053BB6207F128031946224878
:1028900004F04CF90346002B01D000F0A9FA1E48C1
:1028A00003F047FD0346002B01D000F0A1FA0023FE
:1028B0003B6200237B6207F120031946164804F0AF
:1028C0003BFD0346002B01D000F092FA60237B60B1
:1028D0000023BB600223FB6000237B613B1D0822B9
:1028E00019460D4804F060F80346002B01D000F0B3
:1028F0007FFA3B1D0C221946074804F055F80346A1
:10290000002B01D000F074FA034800F0CDFE00BFA8
:102910003837BD4680BD00BF74030020000800406A
:1029200080B58CB000AF07F10C03242200211846BB
:1029300006F081FE3B1D00221A605A60204B214A9E
:102940001A601F4B00225A601D4B00229A601C4BDC
:102950004FF6FF72DA601A4B00221A61184B002200
:102960009A610323FB6000233B6101237B61002309
:10297000BB610023FB6100233B6201237B620023D8
:10298000BB620023FB6207F10C0319460C4803F0FD
:10299000E7FD0346002B01D000F02AFA00237B60FC
:1029A0000023BB603B1D1946054804F0C5FC0346E7
:1029B000002B01D000F01CFA00BF3037BD4680BDAF
:1029C000BC030020000C004080B586B000AF07F1CA
:1029D000080300221A605A609A60DA603B460022BF
:1029E0001A605A601E4B1F4A1A601D4B00225A6023
:1029F0001B4B00229A601A4B41F61F42DA60184BBB
:102A000000221A61164B00225A61154B00229A616E
:102A1000134803F03FFC0346002B01D000F0E8F917
:102A20004FF48053BB6007F1080319460C4804F0CB
:102A30007DF80346002B01D000F0DAF900233B605B
:102A400000237B603B461946054804F075FC0346AD
:102A5000002B01D000F0CCF900BF1837BD4680BD77
:102A6000040400200004014080B588B000AF3B1D85
:102A700000221A605A609A60DA601A615A619A619B
:102A80001C4B1D4A1A601B4B00225A60194B002236
:102A90009A60184B41F61F42DA60164B00221A6109
:102AA000144B00229A61134803F0F4FB0346002BF9
:102AB00001D000F09DF90F4803F03BFC0346002BCA
:102AC00001D000F095F960237B600023BB600023F8
:102AD000FB6000237B613B1D00221946054803F083
:102AE00063FF0346002B01D000F082F900BF2037BE
:102AF000BD4680BD4C0400200048014080B588B030
:102B000000AF3B1D00221A605A609A60DA601A61B9
:102B10005A619A611A4B1B4A1A60194B53225A6028
:102B2000174B00229A60164B44F61F62DA60144B72
:102B300000221A61124B00229A61114803F0F9FB3E
:102B40000346002B01D000F053F960237B60002383
:102B5000BB600023FB6000237B613B1D0422194600
:102B6000074803F021FF0346002B01D000F040F995
:102B7000034800F099FD00BF2037BD4680BD00BF6F
:102B8000940400200018004080B500AF114B124A99
:102B90001A60104B4FF416525A600E4B00229A6086
:102BA0000C4B0022DA600B4B00221A61094B0C22FD
:102BB0005A61084B00229A61064B0022DA610548EF
:102BC00004F09CFC0346002B01D000F011F900BF7B
:102BD00080BD00BFDC0400200044004080B500AF91
:102BE000114B124A1A60104B4FF4E1325A600E4BEF
:102BF00000229A600C4B0022DA600B4B00221A6113
:102C0000094B0C225A61084B00229A61064B0022A4
:102C1000DA61054804F072FC0346002B01D000F095
:102C2000E7F800BF80BD00BF240500200048004039
:102C300080B58CB000AF07F11C0300221A605A6007
:102C40009A60DA601A610023BB61634B1B6B624AB6
:102C500043F080031363604B1B6B03F08003BB6185
:102C6000BB6900237B615C4B1B6B5B4A43F0010338
:102C70001363594B1B6B03F001037B617B690023DA
:102C80003B61554B1B6B544A43F010031363524B8B
:102C90001B6B03F010033B613B690023FB604E4B51
:102CA0001B6B4D4A43F0020313634B4B1B6B03F04A
:102CB0000203FB60FB680023BB60474B1B6B464A6B
:102CC00043F008031363444B1B6B03F00803BB6022
:102CD000BB6800237B60404B1B6B3F4A43F00403FF
:102CE00013633D4B1B6B03F004037B607B68002286
:102CF0004FF4F041394801F0C7FD00224FF48851EC
:102D0000374801F0C1FD4FF48053FB614FF4881345
:102D10003B6200237B6207F11C031946314801F036
:102D2000FFFB4FF4F043FB6101233B6200237B6216
:102D30000023BB6207F11C031946284801F0F0FB91
:102D40004FF48853FB6101233B6200237B62002325
:102D5000BB6207F11C031946214801F0E1FB032384
:102D6000FB614FF488133B6200237B6207F11C0375
:102D700019461D4801F0D4FB4FF48043FB61012349
:102D80003B6200237B620023BB6207F11C031946F0
:102D9000144801F0C5FB4FF40073FB6100233B6254
:102DA00000237B6207F11C031946104801F0B8FBB1
:102DB00000220021062001F0EAFA062001F003FBC0
:102DC00000220021072001F0E2FA072001F0FBFABF
:102DD00000BF3037BD4680BD00380240000C0240C5
:102DE00000000240000402400010024000080240BF
:102DF00080B400AF72B600BF00BFFDE780B584B0FD
:102E000000AF03460A46FB711346BB71BB79012B29
:102E100006D101224FF400611E4801F035FD05E0A6
:102E200000224FF400611B4801F02EFD0023FB73CC
:102E300022E000224FF48041164801F025FD97F969
:102E40000730002B06DA01224FF40051114801F03F
:102E50001BFD05E000224FF400510E4801F014FD67
:102E600001224FF480410B4801F00EFDFB795B001D
:102E7000FB71FB7B0133FB73FB7B072BD9D9012251
:102E80004FF40061034801F0FFFC00BF1037BD465E
:102E900080BD00BF000C024080B582B000AF0023AF
:102EA000FB7126E0FB79503BDBB200211846FFF7AF
:102EB000A5FF00210020FFF7A1FF00211020FFF750
:102EC0009DFF0023BB710DE0BA79FB790D49D2005B
:102ED0000A4413441B7801211846FFF78FFFBB7982
:102EE0000133BB7197F90630002BEDDAFB79013322
:102EF000FB71FB79072BD5D900BF00BF0837BD4652
:102F000080BD00BF3806002080B582B000AF00232E
:102F1000FB7114E00023BB710AE0BA79FB790C491C
:102F2000D2000A44134400221A70BB790133BB71EA
:102F300097F90630002BF0DAFB790133FB71FB794E
:102F4000072BE7D9FFF7A8FF00BF0837BD4680BDB4
:102F50003806002080B485B000AF0346FB710B46F5
:102F6000BB7113467B710023FB7397F90730002B6D
:102F700041DBBB793F2B3ED8BB79DB08DBB2C3F129
:102F80000703BB73BB7903F007037B737B7BC3F140
:102F90000703012202FA03F3FB737B79002B12D0A3
:102FA000FA79BB7B1749D2000A4413441878FA799E
:102FB000BB7BF97B0143C8B21249D2000A441344D7
:102FC00002461A7018E0FA79BB7B0E49D2000A4417
:102FD00013441B785AB297F90F30DB435BB21340AE
:102FE00059B2FA79BB7BC8B20649D2000A441344ED
:102FF00002461A7000E000BF1437BD465DF8047B3E
:10300000704700BF3806002090B585B000AF044679
:10301000084611461A462346FB710346BB710B4610
:103020007B7113463B71BB793B737B79203B7B7192
:103030000023BB734DE03B790C2B0BD17A79B97B24
:10304000284813465B0013449B0003440B441B7841
:10305000FB7307E07A79BB7B234912010A441344CE
:103060001B78FB7300237B732DE097F90F30002B47
:1030700007DA97F82020B979FB791846FFF76AFF3D
:103080000CE097F82030002B0CBF01230023DBB2AB
:103090001A46B979FB791846FFF75CFFFB7B5B00AA
:1030A000FB73BB790133BB71BA793B7BD21A3B7995
:1030B0009A4205D13B7BBB71FB790133FB7105E083
:1030C0007B7B01337B737B7B072BCED9BB7B0133AF
:1030D000BB73BA7B3B799A42ADD300BF00BF1437B4
:1030E000BD4690BD8CD8000800DD000880B584B0D6
:1030F00002AF03463A60FB710B46BB711FE0FB79E0
:103100007A2B04D90023FB71BB791033BB71BB79D7
:103110003A2B05D90023FB71FB79BB71FFF7F4FE55
:103120003B681A78B979F879012300930C23FFF7EB
:103130006BFFFB790833FB713B6801333B603B68F5
:103140001B78002BDBD100BF00BF0837BD4680BD18
:1031500080B500AF02F0DEFB424B1B6F414A23F00B
:10316000010313673F4B1B6F3E4A23F004031367B1
:1031700002F0E4FB00224FF480513B4801F084FB55
:10318000642000F0A3FD01224FF48051364801F085
:103190007BFB0021AE20FFF731FE0021D520FFF799
:1031A0002DFE00215020FFF729FE0021A820FFF767
:1031B00025FE00213F20FFF721FE0021D320FFF74D
:1031C0001DFE00210020FFF719FE00214020FFF71F
:1031D00015FE00218D20FFF711FE00211420FFF7BE
:1031E0000DFE00212020FFF709FE00210220FFF73D
:1031F00005FE0021A120FFF701FE0021C020FFF7FE
:10320000FDFD0021DA20FFF7F9FD00211220FFF774
:10321000F5FD00218120FFF7F1FD0021EF20FFF7F0
:10322000EDFD0021D920FFF7E9FD0021F120FFF796
:10323000E5FD0021DB20FFF7E1FD00213020FFF755
:10324000DDFD0021A420FFF7D9FD0021A620FFF716
:10325000D5FD0021AF20FFF7D1FDFFF755FE00BFE0
:1032600080BD00BF00380240000C024080B582B033
:1032700000AF00237B60134B5B6C124A43F4804326
:103280005364104B5B6C03F480437B607B680023CA
:103290003B600C4B1B6C0B4A43F080531364094B8F
:1032A0001B6C03F080533B603B680022002105202B
:1032B00001F06DF8052001F086F800BF0837BD4623
:1032C00080BD00BF0038024080B58AB000AF786092
:1032D00007F1140300221A605A609A60DA601A61DA
:1032E0007B681B68174A934227D100233B61164B2A
:1032F0005B6C154A43F480735364134B5B6C03F4AB
:1033000080733B613B690023FB600F4B1B6B0E4AD4
:1033100043F0010313630C4B1B6B03F00103FB60D1
:10332000FB6830237B610323BB610023FB6107F152
:1033300014031946054801F0F3F800BF2837BD46CD
:1033400080BD00BF00200140003802400000024064
:1033500080B58AB000AF786007F1140300221A60CC
:103360005A609A60DA601A617B681B68194A934256
:103370002CD100233B61184B1B6B174A43F002030F
:103380001363154B1B6B03F002033B613B694FF466
:1033900040637B611223BB610023FB6103233B621B
:1033A00004237B6207F1140319460C4801F0B8F8B6
:1033B0000023FB60084B1B6C074A43F48003136433
:1033C000054B1B6C03F48003FB60FB6800BF2837D0
:1033D000BD4680BD00580040003802400004024055
:1033E00080B58EB000AF786007F1240300221A6028
:1033F0005A609A60DA601A617B681B68414A93429E
:103400002DD100233B62404B5B6C3F4A43F00103EC
:1034100053643D4B5B6C03F001033B623B6A00234A
:10342000FB61394B1B6B384A43F010031363364B77
:103430001B6B03F01003FB61FB694FF420637B629D
:103440000223BB620023FB6200233B6301237B63F7
:1034500007F1240319462D4801F062F84EE07B681D
:103460001B682B4A93420ED10023BB61264B1B6C79
:10347000254A43F002031364234B1B6C03F0020341
:10348000BB61BB693AE07B681B68224A93420ED15C
:1034900000237B611C4B1B6C1B4A43F00403136429
:1034A000194B1B6C03F004037B617B6926E07B688E
:1034B0001B68194A93420ED100233B61124B5B6C8F
:1034C000114A43F0020353640F4B5B6C03F0020399
:1034D0003B613B6912E07B681B68104A93420DD147
:1034E0000023FB60084B5B6C074A43F48023536462
:1034F000054B5B6C03F48023FB60FB6800BF38372F
:10350000BD4680BD0000014000380240001002406E
:103510000004004000080040000401400048014051
:1035200080B58CB000AF786007F11C0300221A60F0
:103530005A609A60DA601A617B681B68B3F1804F49
:1035400053D10023BB61434B1B6C424A43F0010340
:103550001364404B1B6C03F00103BB61BB69002388
:103560007B613C4B1B6B3B4A43F001031363394BBC
:103570001B6B03F001037B617B6900233B61354BCF
:103580001B6B344A43F002031363324B1B6B03F093
:1035900002033B613B694FF40043FB6102233B6242
:1035A00000237B620023BB620123FB6207F11C0343
:1035B0001946294800F0B4FF0823FB6102233B624F
:1035C00000237B620023BB620123FB6207F11C0323
:1035D0001946224800F0A4FF002200211C2000F020
:1035E000D6FE1C2000F0EFFE30E07B681B681C4A12
:1035F00093422BD10023FB60164B1B6C154A43F002
:1036000008031364134B1B6C03F00803FB60FB6897
:103610000023BB600F4B1B6B0E4A43F00103136387
:103620000C4B1B6B03F00103BB60BB680323FB6106
:1036300002233B6200237B620023BB620223FB6206
:1036400007F11C031946044800F06AFF00BF303739
:10365000BD4680BD00380240000002400004024028
:10366000000C004080B485B000AF78607B681B68B8
:103670000B4A93420DD10023FB600A4B1B6C094A95
:1036800043F040031364074B1B6C03F04003FB60E3
:10369000FB6800BF1437BD465DF8047B704700BF70
:1036A000001800400038024080B58CB000AF786050
:1036B00007F11C0300221A605A609A60DA601A61EE
:1036C0007B681B684A4A93421FD10023BB61494B68
:1036D0001B6B484A43F010031363464B1B6B03F00C
:1036E0001003BB61BB694FF4C043FB6102233B6223
:1036F00000237B620023BB620123FB6207F11C03F2
:1037000019463D4800F00CFF6DE07B681B683B4AA2
:1037100093421FD100237B61364B1B6B354A43F02C
:1037200004031363334B1B6B03F004037B617B695E
:103730004FF40073FB6102233B6200237B62002392
:10374000BB620223FB6207F11C0319462C4800F000
:10375000E7FE48E07B681B682A4A93421FD100239A
:103760003B61244B1B6B234A43F002031363214B41
:103770001B6B03F002033B613B694FF44073FB6139
:1037800002233B6200237B620023BB620223FB62B5
:1037900007F11C0319461C4800F0C2FE23E07B68B9
:1037A0001B681A4A93421ED10023FB60114B1B6B0E
:1037B000104A43F0020313630E4B1B6B03F002032A
:1037C000FB60FB684FF40043FB6102233B62002374
:1037D0007B620023BB620923FB6207F11C031946CD
:1037E000094800F09DFE00BF3037BD4680BD00BFD8
:1037F0000000014000380240001002400004004078
:103800000008024000080040000402400018004088
:1038100080B58CB000AF786007F11C0300221A60FD
:103820005A609A60DA601A617B681B68364A934274
:1038300034D10023BB61354B1B6C344A43F4003355
:103840001364324B1B6C03F40033BB61BB69002370
:103850007B612E4B1B6B2D4A43F0080313632B4BEC
:103860001B6B03F008037B617B696023FB61022310
:103870003B6200237B620323BB620723FB6207F1E9
:103880001C031946224800F04BFE0022002126208E
:1038900000F07DFD262000F096FD31E07B681B687E
:1038A0001C4A93422CD100233B61184B1B6C174AD6
:1038B00043F480231364154B1B6C03F480233B619A
:1038C0003B690023FB60114B1B6B104A43F008035C
:1038D00013630E4B1B6B03F00803FB60FB684FF494
:1038E0004073FB6102233B6200237B620323BB62C4
:1038F0000723FB6207F11C031946054800F010FE80
:1039000000BF3037BD4680BD004400400038024053
:10391000000C02400048004080B400AF00BFFDE74B
:1039200080B400AF00BFFDE780B400AF00BFFDE78B
:1039300080B400AF00BFFDE780B400AF00BFFDE77B
:1039400080B400AF00BFBD465DF8047B704780B413
:1039500000AF00BFBD465DF8047B704780B400AF88
:1039600000BFBD465DF8047B7047000080B500AF26
:10397000104B1B6801330F4A13600E4B1A680E4B35
:103980001B689A4211D10D4BB3F900301A460C4B0B
:10399000B3F90030D31A0B4A1360084BB3F9002077
:1039A000074B1A80034B00221A6000F06FF900BF2A
:1039B00080BD00BF3C0A0020020000201806002045
:1039C000380A00200E06002080B400AF00BFBD46BC
:1039D0005DF8047B704780B500AF012000F088FFE0
:1039E00000BF80BD80B500AF022000F081FF00BFA6
:1039F00080BD000080B500AF024802F0E5FE00BFC8
:103A000080BD00BFE402002080B500AF024803F093
:103A1000E7FE00BF80BD00BFDC04002080B400AF23
:103A200001231846BD465DF8047B704780B582B01F
:103A300000AF7860396005F063FE034616221A6015
:103A40004FF0FF3318460837BD4680BD80B582B0C1
:103A500000AF78604FF0FF317868FFF7E7FF00BFF5
:103A6000FDE780B586B000AFF860B9607A600023EA
:103A70007B610AE0AFF300800146BB685A1CBA6064
:103A8000CAB21A707B6901337B617A697B689A429A
:103A9000F0DB7B6818461837BD4680BD80B483B024
:103AA00000AF78604FF0FF3318460C37BD465DF825
:103AB000047B704780B483B000AF786039603B68A6
:103AC0004FF400525A60002318460C37BD465DF88B
:103AD000047B704780B483B000AF78600123184640
:103AE0000C37BD465DF8047B704780B485B000AFED
:103AF000F860B9607A60002318461437BD465DF857
:103B0000047B704780B586B000AF7860144A154BCF
:103B1000D31A7B617B693B61134B1B68002B02D17D
:103B2000114B124A1A60104B1A687B6813443A69A9
:103B30009A4207D205F0E4FD03460C221A604FF0CA
:103B4000FF3309E0084B1B68FB60074B1A687B6872
:103B50001344054A1360FB6818461837BD4680BDFC
:103B60000000022000040000400A0020980B002002
:103B700080B400AF064BD3F88830054A43F4700395
:103B8000C2F8883000BFBD465DF8047B704700BFB7
:103B900000ED00E0DFF834D00D480E490E4A002356
:103BA00002E0D458C4500433C4188C42F9D30B4AF1
:103BB0000B4C002301E013600432A242FBD3FFF759
:103BC000D7FF05F0A3FDFEF787F97047000002203C
:103BD00000000020E40100205CE70008E401002070
:103BE000940B0020FEE7000080B500AF0E4B1B6871
:103BF0000D4A43F4007313600B4B1B680A4A43F4ED
:103C000080631360084B1B68074A43F4807313609A
:103C1000032000F0B1FB0F2000F008F8FFF726FBAF
:103C20000023184680BD00BF003C024080B582B032
:103C300000AF7860124B1A68124B1B7819464FF48C
:103C40007A73B3FBF1F3B2FBF3F3184600F0C9FB50
:103C50000346002B01D001230EE07B680F2B0AD80E
:103C6000002279684FF0FF3000F091FB064A7B6834
:103C70001360002300E0012318460837BD4680BDCD
:103C800010000020180000201400002080B400AFB5
:103C9000064B1B781A46064B1B681344044A1360F4
:103CA00000BFBD465DF8047B704700BF18000020D0
:103CB000440A002080B400AF034B1B681846BD4681
:103CC0005DF8047B704700BF440A002080B584B0D3
:103CD00000AF7860FFF7EEFFB8607B68FB60FB68C1
:103CE000B3F1FF3F05D00A4B1B781A46FB6813441B
:103CF000FB6000BFFFF7DEFF0246BB68D31AFA681D
:103D00009A42F7D800BF00BF1037BD4680BD00BF44
:103D10001800002080B584B000AF78600023FB73EA
:103D20007B68002B01D1012333E07B681B6C002BE7
:103D300009D17868FFF7C8FA7B6800225A647B686B
:103D4000002283F83C207B681B6C03F01003002BDF
:103D500018D17B681B6C23F4885323F0020343F0D3
:103D600002027B681A64786800F03AF97B680022E6
:103D70005A647B681B6C23F0030343F001027B68E9
:103D80001A6401E00123FB737B68002283F83C2066
:103D9000FB7B18461037BD4680BD000080B485B05F
:103DA00000AF786039600023BB607B6893F83C30DB
:103DB000012B01D1022305E17B68012283F83C201D
:103DC0003B681B68092B25D97B681B68D9683B6851
:103DD0001B689BB21A4613465B0013441E3B072226
:103DE00002FA03F3DA437B681B680A40DA607B68F7
:103DF0001B68D9683B689A683B681B689BB2184689
:103E000003465B0003441E3B9A407B681B680A43E1
:103E1000DA6022E07B681B6819693B681B689BB20B
:103E20001A4613465B001344072202FA03F3DA43EF
:103E30007B681B680A401A617B681B6819693B68CC
:103E40009A683B681B689BB2184603465B000344B4
:103E50009A407B681B680A431A613B685B68062BC3
:103E600024D87B681B68596B3B685A6813469B00D3
:103E70001344053B1F2202FA03F3DA437B681B68F5
:103E80000A405A637B681B68596B3B681B689BB28E
:103E900018463B685A6813469B001344053B00FADA
:103EA00003F27B681B680A435A634CE03B685B681B
:103EB0000C2B24D87B681B68196B3B685A68134627
:103EC0009B001344233B1F2202FA03F3DA437B686F
:103ED0001B680A401A637B681B68196B3B681B6888
:103EE0009BB218463B685A6813469B001344233B19
:103EF00000FA03F27B681B680A431A6323E07B68BD
:103F00001B68D96A3B685A6813469B001344413BBF
:103F10001F2202FA03F3DA437B681B680A40DA6265
:103F20007B681B68D96A3B681B689BB218463B6874
:103F30005A6813469B001344413B00FA03F27B6826
:103F40001B680A43DA62224BFB607B681B68214ACC
:103F5000934209D13B681B68122B05D1FB685B6853
:103F600043F48002FB685A607B681B68194A9342DD
:103F700023D13B681B68102B03D03B681B68112BB7
:103F80001BD1FB685B6843F40002FB685A603B6826
:103F90001B68102B11D1104B1B68104AA2FB032386
:103FA0009A0C13469B0013445B00BB6002E0BB68A5
:103FB000013BBB60BB68002BF9D17B68002283F812
:103FC0003C20002318461437BD465DF8047B70473B
:103FD00000230140002001401000002083DE1B432D
:103FE00080B485B000AF7860794BFB60FB685B689C
:103FF00023F44032FB685A60FB685A687B685B6850
:104000001A43FB685A607B681B685A687B681B68A8
:1040100022F480725A607B681B6859687B681B6950
:104020001A027B681B680A435A607B681B685A68DF
:104030007B681B6822F040725A607B681B68596875
:104040007B689A687B681B680A435A607B681B68B8
:104050009A687B681B6822F400629A607B681B6820
:1040600099687B68DA687B681B680A439A607B689A
:104070009B6A584A934222D07B681B689A687B6887
:104080001B6822F070629A607B681B6899687B6885
:104090009A6A7B681B680A439A607B681B689A6807
:1040A0007B681B6822F040529A607B681B689968A5
:1040B0007B68DA6A7B681B680A439A600FE07B685A
:1040C0001B689A687B681B6822F070629A607B6844
:1040D0001B689A687B681B6822F040529A607B6874
:1040E0001B689A687B681B6822F002029A607B68F2
:1040F0001B6899687B681B7E5A007B681B680A43B3
:104100009A607B6893F82030002B1BD07B681B687B
:104110005A687B681B6842F400625A607B681B68BF
:104120005A687B681B6822F460425A607B681B688F
:1041300059687B685B6A013B5A037B681B680A43CA
:104140005A6007E07B681B685A687B681B6822F42A
:1041500000625A607B681B68DA6A7B681B6822F41D
:104160007002DA627B681B68D96A7B68DB69013B95
:104170001A057B681B680A43DA627B681B689A68C9
:104180007B681B6822F400729A607B681B689968E0
:104190007B6893F830305A027B681B680A439A6048
:1041A0007B681B689A687B681B6822F480629A604F
:1041B0007B681B6899687B685B699A027B681B68EF
:1041C0000A439A6000BF1437BD465DF8047B704710
:1041D000002301400100000F80B485B000AF78607B
:1041E0007B6803F00703FB600C4BDB68BB60BA68BD
:1041F0004FF6FF031340BB60FB681A02BB68134312
:1042000043F0BF6343F40033BB60044ABB68D36030
:1042100000BF1437BD465DF8047B704700ED00E039
:1042200080B400AF044BDB681B0A03F00703184699
:10423000BD465DF8047B704700ED00E080B483B0BC
:1042400000AF0346FB7197F90730002B0BDBFB79BE
:1042500003F01F02074997F907305B09012000FAB4
:1042600002F241F8232000BF0C37BD465DF8047B05
:10427000704700BF00E100E080B483B000AF0346A8
:104280003960FB7197F90730002B0ADB3B68DAB223
:104290000C4997F907301201D2B20B4483F800237E
:1042A0000AE03B68DAB20849FB7903F00F03043BEC
:1042B0001201D2B20B441A7600BF0C37BD465DF82E
:1042C000047B704700E100E000ED00E080B489B0BD
:1042D00000AFF860B9607A60FB6803F00703FB6128
:1042E000FB69C3F10703042B28BF0423BB61FB69EF
:1042F0000433062B02D9FB69033B00E000237B61FA
:104300004FF0FF32BB6902FA03F3DA43BB681A408D
:104310007B699A404FF0FF317B6901FA03F3D9437F
:104320007B680B40134318462437BD465DF8047B79
:104330007047000080B582B000AF78607B68013BB9
:10434000B3F1807F01D301230FE00A4A7B68013B70
:1043500053600F214FF0FF30FFF78EFF054B002217
:104360009A60044B07221A60002318460837BD469E
:1043700080BD00BF10E000E080B582B000AF786083
:104380007868FFF729FF00BF0837BD4680BD80B5BC
:1043900086B000AF0346B9607A60FB7300237B618F
:1043A000FFF73EFF78617A68B9687869FFF78EFF9A
:1043B000024697F90F3011461846FFF75DFF00BF20
:1043C0001837BD4680BD80B582B000AF0346FB7193
:1043D00097F907301846FFF731FF00BF0837BD4691
:1043E00080BD80B582B000AF78607868FFF7A2FF2B
:1043F000034618460837BD4680BD80B584B000AF7F
:1044000078607B689B6DFB60FFF754FCB8607B684D
:1044100093F83530DBB2022B08D07B6880225A65D6
:104420007B68002283F83420012352E07B681B68FC
:104430001A687B681B6822F016021A607B681B688A
:104440005A697B681B6822F080025A617B681B6C8A
:10445000002B03D17B689B6C002B07D07B681B680B
:104460001A687B681B6822F008021A607B681B6868
:104470001A687B681B6822F001021A6013E0FFF7DC
:1044800019FC0246BB68D31A052B0CD97B68202285
:104490005A657B68032283F835207B68002283F805
:1044A0003420032315E07B681B681B6803F00103BD
:1044B000002BE4D17B68DB6D3F229A40FB689A6059
:1044C0007B68012283F835207B68002283F8342042
:1044D000002318461037BD4680BD80B483B000AFBE
:1044E00078607B6893F83530DBB2022B04D07B68B0
:1044F00080225A6501230CE07B68052283F8352071
:104500007B681B681A687B681B6822F001021A60CE
:10451000002318460C37BD465DF8047B7047000049
:1045200080B489B000AF7860396000237B610023DC
:104530003B610023BB610023FB616BE10122FB694E
:1045400002FA03F37B613B681B687A6913403B61A5
:104550003A697B699A4240F05A813B685B6803F094
:104560000303012B05D03B685B6803F00303022BB8
:1045700030D17B689B68BB61FB695B00032202FA58
:1045800003F3DB43BA691340BB613B68DA68FB693C
:104590005B0002FA03F3BA691343BB617B68BA6933
:1045A0009A607B685B68BB610122FB6902FA03F3D6
:1045B000DB43BA691340BB613B685B681B0903F0CE
:1045C0000102FB6902FA03F3BA691343BB617B681A
:1045D000BA695A603B685B6803F00303032B17D08A
:1045E0007B68DB68BB61FB695B00032202FA03F3B3
:1045F000DB43BA691340BB613B689A68FB695B00A7
:1046000002FA03F3BA691343BB617B68BA69DA60E3
:104610003B685B6803F00303022B23D1FB69DA08D4
:104620007B68083253F82230BB61FB6903F0070353
:104630009B000F2202FA03F3DB43BA691340BB610C
:104640003B681A69FB6903F007039B0002FA03F356
:10465000BA691343BB61FB69DA087B680832B96940
:1046600043F822107B681B68BB61FB695B00032277
:1046700002FA03F3DB43BA691340BB613B685B6832
:1046800003F00302FB695B0002FA03F3BA69134308
:10469000BB617B68BA691A603B685B6803F44033AE
:1046A000002B00F0B4800023FB60604B5B6C5F4A22
:1046B00043F4804353645D4B5B6C03F48043FB60C5
:1046C000FB685B4AFB699B08023352F82330BB61ED
:1046D000FB6903F003039B000F2202FA03F3DB43A1
:1046E000BA691340BB617B68524A93422BD07B6806
:1046F000514A934225D07B68504A93421FD07B6831
:104700004F4A934219D07B684E4A934213D07B683C
:104710004D4A93420DD07B684C4A934207D07B6848
:104720004B4A934201D107230EE008230CE00623F5
:104730000AE0052308E0042306E0032304E0022343
:1047400002E0012300E00023FA6902F00302920074
:104750009340BA691343BB613549FB699B08023337
:10476000BA6941F823203B4B9B68BB613B69DB4343
:10477000BA691340BB613B685B6803F48013002B8C
:1047800003D0BA693B691343BB61324ABB6993608A
:10479000304BDB68BB613B69DB43BA691340BB61EB
:1047A0003B685B6803F40013002B03D0BA693B69D4
:1047B0001343BB61274ABB69D360264B5B68BB616F
:1047C0003B69DB43BA691340BB613B685B6803F438
:1047D0000033002B03D0BA693B691343BB611D4A08
:1047E000BB6953601B4B1B68BB613B69DB43BA6908
:1047F0001340BB613B685B6803F48033002B03D03C
:10480000BA693B691343BB61124ABB691360FB6918
:104810000133FB61FB690F2B7FF690AE00BF00BF39
:104820002437BD465DF8047B704700BF0038024066
:10483000003801400000024000040240000802402D
:10484000000C024000100240001402400018024018
:10485000001C0240003C014080B485B000AF78608D
:104860000B467B807B681A697B881340002B02D043
:104870000123FB7301E00023FB73FB7B1846143715
:10488000BD465DF8047B704780B483B000AF7860AC
:104890000B467B8013467B707B78002B03D07A8895
:1048A0007B689A6103E07B881A047B689A6100BF89
:1048B0000C37BD465DF8047B704780B485B000AF0F
:1048C00078600B467B807B685B69FB607A88FB685D
:1048D00013401A04FB68D9437B880B401A437B685A
:1048E0009A6100BF1437BD465DF8047B7047000035
:1048F00080B582B000AF0346FB80084B5A69FB8845
:104900001340002B06D0054AFB885361FB881846EC
:10491000FCF7CEFC00BF0837BD4680BD003C01401F
:1049200080B584B000AF78607B68002B01D1012393
:104930002BE17B6893F83D30DBB2002B06D17B681E
:10494000002283F83C207868FEF702FD7B68242271
:1049500083F83D207B681B681A687B681B6822F01F
:1049600001021A607B681B681A687B681B6842F446
:1049700000421A607B681B681A687B681B6822F417
:1049800000421A6001F05EFCF8607B685B68814A57
:10499000934207D8FB68804A934294BF01230023C7
:1049A000DBB206E0FB687D4A934294BF01230023FB
:1049B000DBB2002B01D00123E7E0FB68784AA2FBC1
:1049C00003239B0CBB607B681B685B6823F03F0183
:1049D0007B681B68BA680A435A607B681B681B6A5D
:1049E00023F03F017B685B686A4A934202D8BB6848
:1049F000013309E0BB684FF4967202FB03F3694A86
:104A0000A2FB03239B0901337A6812680B431362EC
:104A10007B681B68DB6923F44F4222F0FF027B684E
:104A20005B685C498B4219D8FB68591E7B685B68E0
:104A30005B00B1FBF3F3591C40F6FC730B40002BF9
:104A40000AD0FB68591E7B685B685B00B1FBF3F31F
:104A50000133C3F30B0351E004234FE07B689B68F1
:104A6000002B11D1FB68581E7B6859680B465B0010
:104A70000B44B0FBF3F30133C3F30B03002B0CBF68
:104A800001230023DBB212E0FB68581E7B685968E3
:104A90000B469B000B4499000B44B0FBF3F301332E
:104AA000C3F30B03002B0CBF01230023DBB2002B4D
:104AB00001D0012322E07B689B68002B0ED1FB68AC
:104AC000581E7B6859680B465B000B44B0FBF3F340
:104AD0000133C3F30B0343F400430FE0FB68581E9C
:104AE0007B6859680B469B000B4499000B44B0FB54
:104AF000F3F30133C3F30B0343F4404379680968CC
:104B00001343CB617B681B681B6823F0C0017B6883
:104B1000DA697B681B6A1A437B681B680A431A6060
:104B20007B681B689B6823F4034323F0FF037A68C8
:104B300011697A68D26811437A6812680B439360EE
:104B40007B681B68DB6823F0FF017B685A697B6820
:104B50009B691A437B681B680A43DA607B681B68A1
:104B60001A687B681B6842F001021A607B680022A9
:104B70001A647B68202283F83D207B6800221A6338
:104B80007B68002283F83E20002318461037BD467C
:104B900080BD00BFA08601007F841E00FF083D008D
:104BA00083DE1B43D34D621080B588B002AFF8603E
:104BB0007A601A460B467B8113463B81FFF77AF8F1
:104BC0007861FB6893F83D30DBB2202B40F0E08049
:104BD0007B690093192301227049F86800F064FC96
:104BE0000346002B01D00223D3E0FB6893F83C304E
:104BF000012B01D10223CCE0FB68012283F83C2089
:104C0000FB681B681B6803F00103012B07D0FB68DE
:104C10001B681A68FB681B6842F001021A60FB6897
:104C20001B681A68FB681B6822F400621A60FB6844
:104C3000212283F83D20FB68102283F83E20FB6888
:104C400000221A64FB687A685A62FB683A895A85BE
:104C5000FB685B8D9AB2FB681A85FB68504ADA6282
:104C600079897B693A6AF86800F0CEFA0346002B2E
:104C700001D001238DE000233B61FB681B685B6969
:104C80003B61FB681B689B693B613B6966E07A6935
:104C9000396AF86800F022FD0346002B0DD0FB684E
:104CA0001B6C042B07D1FB681B681A68FB681B6828
:104CB00042F400721A6001236BE0FB685B6A1A78A9
:104CC000FB681B681A61FB685B6A5A1CFB685A62C6
:104CD000FB685B8D9BB2013B9AB2FB685A85FB680F
:104CE0001B8D013B9AB2FB681A85FB681B685B69E8
:104CF00003F00403042B1BD1FB681B8D002B17D082
:104D0000FB685B6A1A78FB681B681A61FB685B6A60
:104D10005A1CFB685A62FB685B8D9BB2013B9AB2DE
:104D2000FB685A85FB681B8D013B9AB2FB681A85AC
:104D30007A69396AF86800F019FD0346002B0DD036
:104D4000FB681B6C042B07D1FB681B681A68FB68A7
:104D50001B6842F400721A6001231AE0FB681B8D85
:104D6000002B94D1FB681B681A68FB681B6842F42F
:104D700000721A60FB68202283F83D20FB68002245
:104D800083F83E20FB68002283F83C20002300E0EB
:104D9000022318461837BD4680BD00BF0200100030
:104DA0000000FFFF80B58CB002AFF8607A601A4651
:104DB0000B467B8113463B81FEF77CFF7862FB68E4
:104DC00093F83D30DBB2202B40F017827B6A0093D2
:104DD000192301227C49F86800F066FB0346002B8A
:104DE00001D002230AE2FB6893F83C30012B01D189
:104DF000022303E2FB68012283F83C20FB681B6866
:104E00001B6803F00103012B07D0FB681B681A68BD
:104E1000FB681B6842F001021A60FB681B681A6895
:104E2000FB681B6822F400621A60FB68222283F888
:104E30003D20FB68102283F83E20FB6800221A64A4
:104E4000FB687A685A62FB683A895A85FB685B8D11
:104E50009AB2FB681A85FB685C4ADA6279897B6AD8
:104E60003A6BF86800F052FA0346002B01D0012398
:104E7000C4E1FB681B8D002B13D100233B62FB6850
:104E80001B685B693B62FB681B689B693B623B6A12
:104E9000FB681B681A68FB681B6842F400721A60A2
:104EA00098E1FB681B8D012B1BD1FB681B681A68FE
:104EB000FB681B6822F480621A600023FB61FB68B8
:104EC0001B685B69FB61FB681B689B69FB61FB6995
:104ED000FB681B681A68FB681B6842F400721A6062
:104EE00078E1FB681B8D022B1BD1FB681B681A68DD
:104EF000FB681B6822F480621A60FB681B681A68F2
:104F0000FB681B6842F400621A600023BB61FB6807
:104F10001B685B69BB61FB681B689B69BB61BB6904
:104F200058E1FB681B681A68FB681B6842F48062E2
:104F30001A6000237B61FB681B685B697B61FB680F
:104F40001B689B697B617B6944E1FB681B8D032BBC
:104F500000F2F180FB681B8D012B23D17A6A396B3B
:104F6000F86800F04BFC0346002B01D0012345E11B
:104F7000FB681B681A69FB685B6AD2B21A70FB682F
:104F80005B6A5A1CFB685A62FB681B8D013B9AB234
:104F9000FB681A85FB685B8D9BB2013B9AB2FB688C
:104FA0005A8517E1FB681B8D022B4ED17B6A00935B
:104FB0003B6B00220649F86800F076FA0346002BA6
:104FC00008D001231AE100BF020010000000FFFF1B
:104FD00004000100FB681B681A68FB681B6842F448
:104FE00000721A60FB681B681A69FB685B6AD2B2C0
:104FF0001A70FB685B6A5A1CFB685A62FB681B8D5F
:10500000013B9AB2FB681A85FB685B8D9BB2013B42
:105010009AB2FB685A85FB681B681A69FB685B6A71
:10502000D2B21A70FB685B6A5A1CFB685A62FB6852
:105030001B8D013B9AB2FB681A85FB685B8D9BB2A6
:10504000013B9AB2FB685A85C4E07B6A00933B6BD4
:1050500000226C49F86800F027FA0346002B01D0C3
:105060000123CBE0FB681B681A68FB681B6822F40D
:1050700080621A60FB681B681A69FB685B6AD2B2BF
:105080001A70FB685B6A5A1CFB685A62FB681B8DCE
:10509000013B9AB2FB681A85FB685B8D9BB2013BB2
:1050A0009AB2FB685A857B6A00933B6B0022554994
:1050B000F86800F0F9F90346002B01D001239DE0C8
:1050C000FB681B681A68FB681B6842F400721A6070
:1050D000FB681B681A69FB685B6AD2B21A70FB68CE
:1050E0005B6A5A1CFB685A62FB681B8D013B9AB2D3
:1050F000FB681A85FB685B8D9BB2013B9AB2FB682B
:105100005A85FB681B681A69FB685B6AD2B21A7021
:10511000FB685B6A5A1CFB685A62FB681B8D013B8B
:105120009AB2FB681A85FB685B8D9BB2013B9AB211
:10513000FB685A854EE07A6A396BF86800F05EFBCE
:105140000346002B01D0012358E0FB681B681A6955
:10515000FB685B6AD2B21A70FB685B6A5A1CFB6818
:105160005A62FB681B8D013B9AB2FB681A85FB688B
:105170005B8D9BB2013B9AB2FB685A85FB681B684A
:105180005B6903F00403042B24D1FB681B8D032B04
:1051900007D1FB681B681A68FB681B6822F48062F1
:1051A0001A60FB681B681A69FB685B6AD2B21A70E6
:1051B000FB685B6A5A1CFB685A62FB681B8D013BEB
:1051C0009AB2FB681A85FB685B8D9BB2013B9AB271
:1051D000FB685A85FB681B8D002B7FF4B6AEFB681D
:1051E000202283F83D20FB68002283F83E20FB68E4
:1051F000002283F83C20002300E0022318462837D1
:10520000BD4680BD0400010080B588B002AFF860E3
:105210007A603B600B467B81FB68DB6A7B617B6964
:10522000082B06D07B69012B03D07B6913F5803FE7
:1052300008D1FB681B681A68FB681B6842F480721F
:105240001A600BE0FB681B6B122B07D1FB681B6815
:105250001A68FB681B6842F480721A603B6800930E
:105260007B6800224FF00111F86800F01DF9034639
:10527000002B0DD0FB681B681B6803F48073B3F52B
:10528000807F03D1FB684FF400721A64032335E07A
:10529000FB681B69B3F5804F08D17B89DBB21A46E6
:1052A000FB681B6802F0FE021A611BE07B89DB11C0
:1052B000DBB203F00603DBB263F00F03DAB2FB6884
:1052C0001B681A613B687A680E49F86800F066F955
:1052D0000346002B01D0012310E07B89DAB2FB6882
:1052E0001B681A613B687A680749F86800F056F94C
:1052F0000346002B01D0012300E000231846183795
:10530000BD4680BD080001000200010080B588B0E4
:1053100002AFF8607A603B600B467B81FB68DB6A1A
:105320007B61FB681B681A68FB681B6842F480623B
:105330001A607B69082B06D07B69012B03D07B693F
:1053400013F5803F08D1FB681B681A68FB681B686F
:1053500042F480721A600BE0FB681B6B112B07D1C3
:10536000FB681B681A68FB681B6842F480721A604D
:105370003B6800937B6800224FF00111F86800F051
:1053800093F80346002B0DD0FB681B681B6803F4E1
:105390008073B3F5807F03D1FB684FF400721A6409
:1053A000032379E0FB681B69B3F5804F08D17B8943
:1053B000DBB243F00103DAB2FB681B681A615FE0FD
:1053C0007B89DB11DBB203F00603DBB263F00F0372
:1053D000DAB2FB681B681A613B687A683049F86882
:1053E00000F0DCF80346002B01D0012354E07B8958
:1053F000DAB2FB681B681A613B687A682949F86869
:1054000000F0CCF80346002B01D0012344E0002338
:105410003B61FB681B685B693B61FB681B689B69C0
:105420003B613B69FB681B681A68FB681B6842F4B8
:1054300080721A603B6800937B6800224FF0011174
:10544000F86800F031F80346002B0DD0FB681B68AC
:105450001B6803F48073B3F5807F03D1FB684FF4BE
:1054600000721A64032317E07B89DB11DBB203F0BF
:105470000603DBB263F00E03DAB2FB681B681A6145
:105480003B687A680749F86800F088F80346002B03
:1054900001D0012300E0002318461837BD4680BD27
:1054A000080001000200010080B584B000AFF86080
:1054B000B9603B601346FB7148E03B68B3F1FF3FC6
:1054C00044D0FEF7F7FB0246BB69D31A3A689A420A
:1054D00002D33B68002B39D1BB681B0CDBB2012B1C
:1054E0000DD1FB681B685B69DA43BB6813409BB254
:1054F000002B0CBF01230023DBB21A460CE0FB6833
:105500001B689B69DA43BB6813409BB2002B0CBF3E
:1055100001230023DBB21A46FB799A4216D1FB68BD
:1055200000221A63FB68202283F83D20FB680022DA
:1055300083F83E20FB681B6C43F02002FB681A6472
:10554000FB68002283F83C20012323E0BB681B0C8E
:10555000DBB2012B0DD1FB681B685B69DA43BB68CA
:1055600013409BB2002B0CBF01230023DBB21A4671
:105570000CE0FB681B689B69DA43BB6813409BB275
:10558000002B0CBF01230023DBB21A46FB799A42A1
:1055900093D0002318461037BD4680BD80B584B037
:1055A00000AFF860B9607A603B6071E0FB681B682F
:1055B0005B6903F48063B3F5806F23D1FB681B68DC
:1055C0001A68FB681B6842F400721A60FB681B686B
:1055D0006FF480625A61FB6800221A63FB68202224
:1055E00083F83D20FB68002283F83E20FB681B6C9B
:1055F00043F00402FB681A64FB68002283F83C2035
:10560000012367E07B68B3F1FF3F41D0FEF752FB17
:1056100002463B68D31A7A689A4202D37B68002B11
:1056200036D1BB681B0CDBB2012B0CD1FB681B68AD
:105630005B69DA43BB6813409BB2002B14BF0123A4
:105640000023DBB20BE0FB681B689B69DA43BB6895
:1056500013409BB2002B14BF01230023DBB2002BAD
:1056600016D0FB6800221A63FB68202283F83D20D5
:10567000FB68002283F83E20FB681B6C43F020028D
:10568000FB681A64FB68002283F83C20012321E0B8
:10569000BB681B0CDBB2012B0CD1FB681B685B6980
:1056A000DA43BB6813409BB2002B14BF01230023D5
:1056B000DBB20BE0FB681B689B69DA43BB681340F5
:1056C0009BB2002B14BF01230023DBB2002B7FF41D
:1056D0006DAF002318461037BD4680BD80B584B03D
:1056E00000AFF860B9607A6034E0F86800F0E3F881
:1056F0000346002B01D0012334E0BB68B3F1FF3F28
:1057000028D0FEF7D7FA02467B68D31ABA689A42C5
:1057100002D3BB68002B1DD1FB681B685B6903F0DB
:105720008003802B16D0FB6800221A63FB682022BE
:1057300083F83D20FB68002283F83E20FB681B6C49
:1057400043F02002FB681A64FB68002283F83C20C7
:10575000012307E0FB681B685B6903F08003802B73
:10576000C3D1002318461037BD4680BD80B584B034
:1057700000AFF860B9607A6034E0F86800F09BF838
:105780000346002B01D0012334E0BB68B3F1FF3F97
:1057900028D0FEF78FFA02467B68D31ABA689A427D
:1057A00002D3BB68002B1DD1FB681B685B6903F04B
:1057B0000403042B16D0FB6800221A63FB68202226
:1057C00083F83D20FB68002283F83E20FB681B6CB9
:1057D00043F02002FB681A64FB68002283F83C2037
:1057E000012307E0FB681B685B6903F00403042BDB
:1057F000C3D1002318461037BD4680BD80B584B0A4
:1058000000AFF860B9607A6049E0FB681B685B69CB
:1058100003F01003102B19D1FB681B686FF0100206
:105820005A61FB6800221A63FB68202283F83D203E
:10583000FB68002283F83E20FB681A6CFB681A6440
:10584000FB68002283F83C20012330E0FEF732FAA7
:1058500002467B68D31ABA689A4202D3BB68002B0F
:105860001DD1FB681B685B6903F04003402B16D019
:10587000FB6800221A63FB68202283F83D20FB6846
:10588000002283F83E20FB681B6C43F02002FB687B
:105890001A64FB68002283F83C20012307E0FB68C0
:1058A0001B685B6903F04003402BAED10023184610
:1058B0001037BD4680BD80B483B000AF78607B6890
:1058C0001B685B6903F48063B3F5806F1BD17B6851
:1058D0001B686FF480625A617B6800221A637B68E0
:1058E000202283F83D207B68002283F83E207B68DD
:1058F0001B6C43F004027B681A647B68002283F807
:105900003C20012300E0002318460C37BD465DF81B
:10591000047B704780B483B000AF064B01221A604D
:10592000054B1B687B607B6800BF0C37BD465DF88C
:10593000047B704720000E420070004080B483B0AA
:1059400000AF064B00221A60054B1B687B607B682A
:1059500000BF0C37BD465DF8047B704720000E4247
:105960000070004080B586B000AF78607B68002B87
:1059700001D1012367E27B681B6803F00103002B60
:1059800075D0884B9B6803F00C03042B0CD0854B1F
:105990009B6803F00C03082B12D1824B5B6803F465
:1059A0008003B3F5800F0BD17E4B1B6803F40033EB
:1059B000002B5BD07B685B68002B57D1012342E250
:1059C0007B685B68B3F5803F06D1764B1B68754AF0
:1059D00043F4803313601DE07B685B68B3F5A02F50
:1059E0000CD1704B1B686F4A43F4802313606D4BDE
:1059F0001B686C4A43F4803313600BE0694B1B68EF
:105A0000684A23F480331360664B1B68654A23F4AD
:105A1000802313607B685B68002B13D0FEF74AF984
:105A2000386108E0FEF746F902463B69D31A642B59
:105A300001D9032307E25B4B1B6803F40033002BFF
:105A4000F0D014E0FEF736F9386108E0FEF732F9DD
:105A500002463B69D31A642B01D90323F3E1514B6E
:105A60001B6803F40033002BF0D100E000BF7B681B
:105A70001B6803F00203002B63D04A4B9B6803F0C2
:105A80000C03002B0BD0474B9B6803F00C03082B37
:105A90001CD1444B5B6803F48003002B16D1414BAF
:105AA0001B6803F00203002B05D07B68DB68012B29
:105AB00001D00123C7E13B4B1B6823F0F8027B6850
:105AC0001B69DB00374913430B603AE07B68DB68F6
:105AD000002B20D0344B01221A60FEF7EBF838611E
